{
  "_format": "hh-sol-artifact-1",
  "contractName": "Token",
  "sourceName": "contracts/Token.sol",
  "abi": [
    {
      "inputs": [],
      "stateMutability": "nonpayable",
      "type": "constructor"
    },
    {
      "anonymous": false,
      "inputs": [
        {
          "indexed": true,
          "internalType": "address",
          "name": "_from",
          "type": "address"
        },
        {
          "indexed": true,
          "internalType": "address",
          "name": "_to",
          "type": "address"
        },
        {
          "indexed": false,
          "internalType": "uint256",
          "name": "amount",
          "type": "uint256"
        }
      ],
      "name": "Transfer",
      "type": "event"
    },
    {
      "inputs": [
        {
          "internalType": "address",
          "name": "account",
          "type": "address"
        }
      ],
      "name": "balanceOf",
      "outputs": [
        {
          "internalType": "uint256",
          "name": "",
          "type": "uint256"
        }
      ],
      "stateMutability": "view",
      "type": "function"
    },
    {
      "inputs": [
        {
          "internalType": "address",
          "name": "",
          "type": "address"
        }
      ],
      "name": "balances",
      "outputs": [
        {
          "internalType": "uint256",
          "name": "",
          "type": "uint256"
        }
      ],
      "stateMutability": "view",
      "type": "function"
    },
    {
      "inputs": [],
      "name": "name",
      "outputs": [
        {
          "internalType": "string",
          "name": "",
          "type": "string"
        }
      ],
      "stateMutability": "view",
      "type": "function"
    },
    {
      "inputs": [],
      "name": "owner",
      "outputs": [
        {
          "internalType": "address",
          "name": "",
          "type": "address"
        }
      ],
      "stateMutability": "view",
      "type": "function"
    },
    {
      "inputs": [],
      "name": "symbol",
      "outputs": [
        {
          "internalType": "string",
          "name": "",
          "type": "string"
        }
      ],
      "stateMutability": "view",
      "type": "function"
    },
    {
      "inputs": [],
      "name": "totalSupply",
      "outputs": [
        {
          "internalType": "uint256",
          "name": "",
          "type": "uint256"
        }
      ],
      "stateMutability": "view",
      "type": "function"
    },
    {
      "inputs": [
        {
          "internalType": "address",
          "name": "_to",
          "type": "address"
        },
        {
          "internalType": "uint256",
          "name": "_amount",
          "type": "uint256"
        }
      ],
      "name": "transfer",
      "outputs": [],
      "stateMutability": "nonpayable",
      "type": "function"
    }
  ],
  "bytecode": "0x60806040526040518060400160405280601581526020017f4a617269627520486172642048617420546f6b656e0000000000000000000000815250600090816200004a9190620003d0565b506040518060400160405280600481526020017f4a4848540000000000000000000000000000000000000000000000000000000081525060019081620000919190620003d0565b50620f4240600255348015620000a657600080fd5b5033600360006101000a81548173ffffffffffffffffffffffffffffffffffffffff021916908373ffffffffffffffffffffffffffffffffffffffff16021790555060025460046000600360009054906101000a900473ffffffffffffffffffffffffffffffffffffffff1673ffffffffffffffffffffffffffffffffffffffff1673ffffffffffffffffffffffffffffffffffffffff16815260200190815260200160002081905550620004b7565b600081519050919050565b7f4e487b7100000000000000000000000000000000000000000000000000000000600052604160045260246000fd5b7f4e487b7100000000000000000000000000000000000000000000000000000000600052602260045260246000fd5b60006002820490506001821680620001d857607f821691505b602082108103620001ee57620001ed62000190565b5b50919050565b60008190508160005260206000209050919050565b60006020601f8301049050919050565b600082821b905092915050565b600060088302620002587fffffffffffffffffffffffffffffffffffffffffffffffffffffffffffffffff8262000219565b62000264868362000219565b95508019841693508086168417925050509392505050565b6000819050919050565b6000819050919050565b6000620002b1620002ab620002a5846200027c565b62000286565b6200027c565b9050919050565b6000819050919050565b620002cd8362000290565b620002e5620002dc82620002b8565b84845462000226565b825550505050565b600090565b620002fc620002ed565b62000309818484620002c2565b505050565b5b81811015620003315762000325600082620002f2565b6001810190506200030f565b5050565b601f82111562000380576200034a81620001f4565b620003558462000209565b8101602085101562000365578190505b6200037d620003748562000209565b8301826200030e565b50505b505050565b600082821c905092915050565b6000620003a56000198460080262000385565b1980831691505092915050565b6000620003c0838362000392565b9150826002028217905092915050565b620003db8262000156565b67ffffffffffffffff811115620003f757620003f662000161565b5b620004038254620001bf565b6200041082828562000335565b600060209050601f83116001811462000448576000841562000433578287015190505b6200043f8582620003b2565b865550620004af565b601f1984166200045886620001f4565b60005b8281101562000482578489015182556001820191506020850194506020810190506200045b565b86831015620004a257848901516200049e601f89168262000392565b8355505b6001600288020188555050505b505050505050565b610aeb80620004c76000396000f3fe608060405234801561001057600080fd5b506004361061007d5760003560e01c806370a082311161005b57806370a08231146100ee5780638da5cb5b1461011e57806395d89b411461013c578063a9059cbb1461015a5761007d565b806306fdde031461008257806318160ddd146100a057806327e235e3146100be575b600080fd5b61008a610176565b60405161009791906106cb565b60405180910390f35b6100a8610204565b6040516100b59190610706565b60405180910390f35b6100d860048036038101906100d39190610784565b61020a565b6040516100e59190610706565b60405180910390f35b61010860048036038101906101039190610784565b610222565b6040516101159190610706565b60405180910390f35b61012661026b565b60405161013391906107c0565b60405180910390f35b610144610291565b60405161015191906106cb565b60405180910390f35b610174600480360381019061016f9190610807565b61031f565b005b6000805461018390610876565b80601f01602080910402602001604051908101604052809291908181526020018280546101af90610876565b80156101fc5780601f106101d1576101008083540402835291602001916101fc565b820191906000526020600020905b8154815290600101906020018083116101df57829003601f168201915b505050505081565b60025481565b60046020528060005260406000206000915090505481565b6000600460008373ffffffffffffffffffffffffffffffffffffffff1673ffffffffffffffffffffffffffffffffffffffff168152602001908152602001600020549050919050565b600360009054906101000a900473ffffffffffffffffffffffffffffffffffffffff1681565b6001805461029e90610876565b80601f01602080910402602001604051908101604052809291908181526020018280546102ca90610876565b80156103175780601f106102ec57610100808354040283529160200191610317565b820191906000526020600020905b8154815290600101906020018083116102fa57829003601f168201915b505050505081565b80600460003373ffffffffffffffffffffffffffffffffffffffff1673ffffffffffffffffffffffffffffffffffffffff1681526020019081526020016000205410156103a1576040517f08c379a0000000000000000000000000000000000000000000000000000000008152600401610398906108f3565b60405180910390fd5b600073ffffffffffffffffffffffffffffffffffffffff168273ffffffffffffffffffffffffffffffffffffffff1603610410576040517f08c379a00000000000000000000000000000000000000000000000000000000081526004016104079061095f565b60405180910390fd5b610434604051806060016040528060248152602001610a9260249139338484610549565b80600460003373ffffffffffffffffffffffffffffffffffffffff1673ffffffffffffffffffffffffffffffffffffffff168152602001908152602001600020600082825461048391906109ae565b9250508190555080600460008473ffffffffffffffffffffffffffffffffffffffff1673ffffffffffffffffffffffffffffffffffffffff16815260200190815260200160002060008282546104d991906109e2565b925050819055508173ffffffffffffffffffffffffffffffffffffffff163373ffffffffffffffffffffffffffffffffffffffff167fddf252ad1be2c89b69c2b068fc378daa952ba7f163c4a11628f55a4df523b3ef8360405161053d9190610706565b60405180910390a35050565b6105e5848484846040516024016105639493929190610a16565b6040516020818303038152906040527f8ef3f399000000000000000000000000000000000000000000000000000000007bffffffffffffffffffffffffffffffffffffffffffffffffffffffff19166020820180517bffffffffffffffffffffffffffffffffffffffffffffffffffffffff83818316178352505050506105eb565b50505050565b610602816105fa610605610626565b63ffffffff16565b50565b60006a636f6e736f6c652e6c6f679050600080835160208501845afa505050565b610631819050919050565b610639610a62565b565b600081519050919050565b600082825260208201905092915050565b60005b8381101561067557808201518184015260208101905061065a565b60008484015250505050565b6000601f19601f8301169050919050565b600061069d8261063b565b6106a78185610646565b93506106b7818560208601610657565b6106c081610681565b840191505092915050565b600060208201905081810360008301526106e58184610692565b905092915050565b6000819050919050565b610700816106ed565b82525050565b600060208201905061071b60008301846106f7565b92915050565b600080fd5b600073ffffffffffffffffffffffffffffffffffffffff82169050919050565b600061075182610726565b9050919050565b61076181610746565b811461076c57600080fd5b50565b60008135905061077e81610758565b92915050565b60006020828403121561079a57610799610721565b5b60006107a88482850161076f565b91505092915050565b6107ba81610746565b82525050565b60006020820190506107d560008301846107b1565b92915050565b6107e4816106ed565b81146107ef57600080fd5b50565b600081359050610801816107db565b92915050565b6000806040838503121561081e5761081d610721565b5b600061082c8582860161076f565b925050602061083d858286016107f2565b9150509250929050565b7f4e487b7100000000000000000000000000000000000000000000000000000000600052602260045260246000fd5b6000600282049050600182168061088e57607f821691505b6020821081036108a1576108a0610847565b5b50919050565b7f4e6f7420656e6f75676820746f6b656e73000000000000000000000000000000600082015250565b60006108dd601183610646565b91506108e8826108a7565b602082019050919050565b6000602082019050818103600083015261090c816108d0565b9050919050565b7f546f20616464726573732063616e6e6f74206265207a65726f00000000000000600082015250565b6000610949601983610646565b915061095482610913565b602082019050919050565b600060208201905081810360008301526109788161093c565b9050919050565b7f4e487b7100000000000000000000000000000000000000000000000000000000600052601160045260246000fd5b60006109b9826106ed565b91506109c4836106ed565b92508282039050818111156109dc576109db61097f565b5b92915050565b60006109ed826106ed565b91506109f8836106ed565b9250828201905080821115610a1057610a0f61097f565b5b92915050565b60006080820190508181036000830152610a308187610692565b9050610a3f60208301866107b1565b610a4c60408301856107b1565b610a5960608301846106f7565b95945050505050565b7f4e487b7100000000000000000000000000000000000000000000000000000000600052605160045260246000fdfe5472616e7366657272696e672066726f6d20257320746f20257320257320746f6b656e73a2646970667358221220ebcf6d59abb86663ec975d2c9ee98f3583062fa5bcc2c2e7a47c56a26db74ae464736f6c63430008180033",
  "linkReferences": {},
  "deployedLinkReferences": {}
}